:02214400C18553
:10194400759100759200759300759400C2C5C2C468
:1019540043B33053B4CFC28AD2BAD2AAD288D2B84F
:10196400D2A85389F0538E7F758AC0758C63D2A92F
:1019740053890F538EBFD2ABD2AF9007D4E0FCA3F0
:10198400E0FDA3E0FEA3E0FF9007D812063D900718
:10199400F2E09007F7F0121F6B900805E0FFFD904E
:1019A40007F8E0FB3395E0FAD3EB9D7480F86A986E
:1019B4004004EFF08015900804E0FFFDC3EB9D7434
:1019C40080F86A9850059007F8EFF0120EFC300585
:1019D400FDC2051222809007F2E0FF9007F7E06F46
:1019E400604CEFF07E007008C2AAC28DD28C803E9B
:1019F400EF64014E701C9007D8E0FCA3E0FDA3E067
:101A0400FEA3E0FF9007D412063DD2AAC28CC28D79
:101A1400801C9007F2E0640270149007D4E0FCA3E9
:101A2400E0FDA3E0FEA3E0FF9007D812063D900777
:101A3400F2E06401700B1221ED121D8A1220008065
:101A4400119007F2E064027009120DB41221ED1234
:0A1A54001D8A12225D12230021D228
:10229E00A2B330B401B35004D200800AA2B330B45A
:0A22AE0001B34005C20012223922DC
:0300130002209137
:10209100C0E0C0F0C083C082C0D075D000C000C015
:1020A10001C002C003C004C005C006C00712234915
:1020B10012229ED205C28BD007D006D005D004D003
:1020C10003D002D001D000D0D0D082D083D0F0D0C4
:0220D100E032FB
:03000300021D00DB
:101D0000C0E0C0F0C083C082C0D075D000C000C0A9
:101D100001C002C003C004C005C006C007122352A0
:101D200020B24712231750219007F2E004F0E0940C
:101D300002748094804002E4F09007F2E064027044
:101D400002D203C206D204801F1222E8501090076C
:101D5000F2E0940074809480400EB206800A9007EE
:101D6000F2E064017002B203D205122352C289D09C
:101D700007D006D005D004D003D002D001D000D0C7
:0A1D8000D0D082D083D0F0D0E03242
:03000B00022215B9
:10221500C0E0C083C082C0D0900806E004F0D3942B
:10222500C8748094804004E4F0D205D0D0D082D028
:0422350083D0E03240
:03000000021C746B
:0C1C7400787FE4F6D8FD758120021CBBCF
:090FF6005397DF75BC8002235201
:101E9D00E4F5BDF5BEEFB40A005046901EAE25E048
:101EAD0073C1C8C1CDC1D2C1D7C1DCC1E1C1E6C1C9
:101EBD00EBC1EEC1C2E4F59DFF8026759D01802129
:101ECD00759D02801C759D048017759D0880127587
:101EDD009D10800D759D208008759D408003759D1A
:101EED0080EF4488F5BC00000000E5BC30E4FB53F6
:101EFD00BCEFAFBDEF75F004A4FFAEF0ADBEEF4D7E
:011F0D00FFD4
:011F0E0022B0
:101A5E0090080174FFF0A3747FF0A374F7F0120FD7
:101A6E00F67F09121E9D7F09121E9D9007FB12061E
:101A7E004900000000E49007FFF0A3F09007FBE0A0
:101A8E00F8A3E0F9A3E0FAA3E0FB7F09121E9DEE96
:101A9E003395E0FDFCEB2FFFEA3EFEE93DFDE83C11
:101AAE00FC9007FB12063D900800E004F0700690D3
:101ABE0007FFE004F0C39007FFE06480948240BC0F
:101ACE009007FBE0FCA3E0FDA3E0FEA3E0FF780996
:101ADE0012062A9007FB12063D900801E0FBA3E0D8
:101AEE00FAA3E0F91204ADFFAEF0EE3395E0FDFC83
:101AFE00E47BFF7A03F9F81204D89007FBE0F8A311
:0B1B0E00E0F9A3E0FAA3E0FB0205638E
:1021C50000000E0A0A1B000000000E1100000000AE
:1021D50000000000110E000000040A1100000000BC
:0821E50000000000110A0400D3
:1022B800C2877590FFC285D286D2871217F7E5903C
:0722C800339202C287A2025B
:0122CF0022EC
:05210D009007FBEFF05C
:10211200E4A3F01222B8500D9007FCE0C39464745B
:1021220080948040EE9007FCE004F0C285C286C233
:10213200879007FBE0F590122349D287122349C208
:012142008715
:012143002279
:101F0F007BE87A03E4F9F89007F9E0FCA3E0FDA37E
:101F1F00E0FEA3E0FF121FBAE47B0AFAF9F8121FE2
:051F2F00BAEB2430FFB5
:051F34009007FEEFF034
:101F3900E4A3F01222B8500D9007FFE0C394647433
:101F490080948040EE9007FFE004F0D285C286C2FB
:101F5900879007FEE0F590122349D287122349C2E0
:011F690087F0
:011F6A002254
:102170009007FBEBF0A3EAF0A3E9F09007FBE0FB8C
:10218000A3E0FAA3E0F9120413FF600F121F3490CA
:0C21900007FCE475F00112048180E022DD
:101293009007F912063D7F407E427D0F7C00900748
:1012A300F9E0F8A3E0F9A3E0FAA3E0FBC312060315
:1012B30040697B407A42790F78009007F9E0FCA3FC
:1012C300E0FDA3E0FEA3E0FF121FBAEF2430FF12FC
:1012D3001F347BA07A86790178009007F9E0FCA39C
:1012E300E0FDA3E0FEA3E0FF121FBAE47B0AFAF9D4
:1012F300F8121FBAAC00AD01AE02AF03E4FBFAF97A
:10130300F8C312060350107F2E121F347BA07A8677
:1013130079017800121F167F4DA11D7FA07E867D67
:10132300017C009007F9E0F8A3E0F9A3E0FAA3E059
:10133300FBC3120603402E7BA07A867901780090C6
:1013430007F9E0FCA3E0FDA3E0FEA3E0FF121FBA50
:10135300EF2430FF121F347B107A27121F13121F42
:101363000F7F6BA11DE47F107E27FDFC9007F9E042
:10137300F8A3E0F9A3E0FAA3E0FBC3120603406578
:10138300E47B107A27F9F89007F9E0FCA3E0FDA3CA
:10139300E0FEA3E0FF121FBAEF2430FF121F341246
:1013A3001F0FE47B64FAF9F89007F9E0FCA3E0FD72
:1013B300A3E0FEA3E0FF121FBAE47B0AFAF9F812D6
:1013C3001FBAAC00AD01AE02AF03E4FBFAF9F8C3F8
:1013D300120603500C7F2E121F34E47B64FA121F93
:1013E300147F6BA11DE47FE87E03FDFC9007F9E009
:1013F300F8A3E0F9A3E0FAA3E0FBC31206034062FB
:10140300E47BE87A03F9F89007F9E0FCA3E0FDA395
:10141300E0FEA3E0FF121FBAEF2430FF121F34E4F3
:101423007B64FAF9F89007F9E0FCA3E0FDA3E0FE82
:10143300A3E0FF121FBAE47B0AFAF9F8121FBAAC51
:1014430000AD01AE02AF03E4FBFAF9F8C3120603E1
:10145300500C7F2E121F34E47B64FA121F147F6B2F
:10146300A11DE47F64FEFDFC9007F9E0F8A3E0F919
:10147300A3E0FAA3E0FBC31206034042E47B64FA51
:10148300F9F89007F9E0FCA3E0FDA3E0FEA3E0FF79
:10149300121FBAEF2430FF121F34E47B0AFA121F23
:1014A30014E47B0AFAF9F89007F9E0FCA3E0FDA342
:1014B300E0FEA3E0FF121FBAEB2430FF805CE47F61
:1014C3000AFEFDFC9007F9E0F8A3E0F9A3E0FAA314
:1014D300E0FBC31206034038E47B0AFAF9F89007ED
:1014E300F9E0FCA3E0FDA3E0FEA3E0FF121FBAEFC7
:1014F3002430FF121F34E47B0AFAF9F89007F9E06D
:10150300FCA3E0FDA3E0FEA3E0FF121FBAEB8007FC
:0E1513009007F9A3A3A3E02430FF121F342297
:100EFC0012232C7F3812210D12232C7F3812210D36
:100F0C0012232C7F3812210D12232C7F3812210D25
:100F1C007F0812210D7F0112210D7F0612210D1267
:100F2C00232C7F0C12210D7F4012210DE49007F928
:100F3C00F0A3F09007F9E0FEA3E0FFC39408EE6481
:100F4C00809480502074C52FF58274213EF583E483
:100F5C0093FF121F349007FAE004F070D69007F953
:100F6C00E004F080CE1223527F5012210DE4900742
:100F7C00F9F0A3F09007F9E0FEA3E0FFC39408EEAC
:100F8C0064809480502074CD2FF58274213EF583BB
:100F9C00E493FF121F349007FAE004F070D6900728
:100FAC00F9E004F080CE1223527F5812210DE49008
:100FBC0007F9F0A3F09007F9E0FEA3E0FFC3940853
:100FCC00EE64809480502074D52FF58274213EF508
:100FDC0083E493FF121F349007FAE004F070D6906C
:0A0FEC0007F9E004F080CE02235262
:1020D300463A00487A202000443A00252000434431
:1020E30000200050002020005074004F4E2020009C
:1020F3004F464620005644443D00427920437265D2
:0A2103006174697665204C61750077
:04214600C183C1840C
:10001E007F8112210D7BFF7A2079D31221707F838D
:10002E0012210D9007F2E024FE60500470769007C6
:10003E00D4E0FCA3E0FDA3E0FEA3E0FF1212937B4D
:10004E00FF7A2079D61221707F8A12210D7BFF7ADA
:10005E002079DB1221709007F8E0FF3395E0FEFD6A
:10006E00FC1212937BFF7A2079DE1221707FC01270
:10007E00210DE4FF121F34E4FF8026900000E0FC07
:10008E00A3E0FDA3E0FEA3E0FF1212937BFF7A2014
:10009E0079D61221707FC012210D7F02121F347F7C
:0500AE0003121F3422C3
:101BCB007FCC12210D7BFF7A2079E1122170E47F0B
:101BDB0032FEFDFC9007D4E0F8A3E0F9A3E0FAA3F2
:101BEB00E0FBC3120619500A7F0C7E007D007C00BF
:101BFB00800F9007F0E02401FFE433FE3395E0FD06
:101C0B00FC1212937BFF7A2079E41221709007F279
:101C1B00E0640270537F8A12210D7BFF7A2079E6F4
:101C2B001221709007D4E0FCA3E0FDA3E0FEA3E03B
:101C3B00FF1212937BFF7A2079E81221707FC61274
:101C4B00210D7BFF7A2079EB1221709007F1E0FDDB
:101C5B007C007E037FE812042CE4FCFD1212937BC4
:091C6B00FF7A2079E412217022B5
:1022D0007FC212210D7BFF3006067A2079EE800442
:0822E0007A2079F3122170222B
:10219C007F8030031112210D7F7E121F347F891234
:1021AC00210D7F20800F12210D7F20121F347F897B
:0921BC0012210D7F7E121F342256
:101E1400121A5E9007F9EEF0A3EFF07F8012210D05
:101E24007BFF7A2079F81221709007F9E0FEA3E095
:101E3400FF7C037DE812042CEF2430FF121F347F53
:101E44002E121F349007F9E0FEA3E0FF7C007D64AE
:101E540012042C7C007D0A12042CED2430FF121F86
:101E6400349007F9E0FEA3E0FF7C007D0A12042C05
:101E74007C007D0A12042CED2430FF121F349007DD
:101E8400F9E0FEA3E0FF7C007D0A12042CED24306F
:091E9400FF121F347F56021F34B7
:0E233B007FC012210D7BFF7A2079FD022170F8
:10225D00300407C2047F0112210D9007F2E07006D1
:10226D0012233B021E1412001E121BCB12219C12B4
:03227D0022D0224A
:101F6B00E47F32FEFDFC9007D4E0F8A3E0F9A3E098
:101F7B00FAA3E0FB1204D8E41203547B807A96791F
:101F8B0018784B1202B7E4FBFAF9783F1200BD1236
:101F9B000392900804EFF0C3940174809480500373
:0F1FAB007401F0900804E0FFC374649FA3F02258
:100A620020010261FA7F407E427D0F7C009007D414
:100A7200E0F8A3E0F9A3E0FAA3E0FBC312061940F1
:100A8200199007D4E0FCA3E0FDA3E0FEA3E024A0BC
:100A9200FFEE3486FEED340161C67FA07E867D01C5
:100AA2007C009007D4E0F8A3E0F9A3E0FAA3E0FB0E
:100AB200C312061940189007D4E0FCA3E0FDA3E09E
:100AC200FEA3E02450FFEE34C3FEE43D61C6E47FA2
:100AD200107E27FDFC9007D4E0F8A3E0F9A3E0FA2A
:100AE200A3E0FBC312061940189007D4E0FCA3E070
:100AF200FDA3E0FEA3E02488FFEE3413FEE43D6193
:100B0200C6E47FE87E03FDFC9007D4E0F8A3E0F999
:100B1200A3E0FAA3E0FBC312061940189007D4E041
:100B2200FCA3E0FDA3E0FEA3E024E8FFEE3403FE15
:100B3200E43D61C6E47F64FEFDFC9007D4E0F8A3C7
:100B4200E0F9A3E0FAA3E0FBC312061940179007ED
:100B5200D4E0FCA3E0FDA3E0FEA3E02432FFE43EE8
:100B6200FEE43D805FE47F0AFEFDFC9007D4E0F8DE
:100B7200A3E0F9A3E0FAA3E0FBC312061940179021
:100B820007D4E0FCA3E0FDA3E0FEA3E02402FFE41F
:100B92003EFEE43D802EE4FFFEFDFC9007D4E0F82B
:100BA200A3E0F9A3E0FAA3E0FBC3120619401F90E9
:100BB20007D4E0FCA3E0FDA3E0FEA3E02401FFE4F0
:100BC2003EFEE43DFDE43CFC9007D412063D7F006E
:100BD2007E097D3D7C009007D4E0F8A3E0F9A3E014
:100BE200FAA3E0FBD31206195002A17F9007D41298
:100BF2000649003D0900A17FE47F0AFEFDFC900743
:100C0200D4E0F8A3E0F9A3E0FAA3E0FBD3120619BB
:100C120050129007D4E0FCA3E0FDA3E0FEA3E0C3E2
:100C220094018057E47F64FEFDFC9007D4E0F8A3B2
:100C3200E0F9A3E0FAA3E0FBD312061950129007E1
:100C4200D4E0FCA3E0FDA3E0FEA3E0C39402802B6A
:100C5200E47FE87E03FDFC9007D4E0F8A3E0F9A36B
:100C6200E0FAA3E0FBD312061950169007D4E0FC79
:100C7200A3E0FDA3E0FEA3E0C39432FFEE9400A143
:100C820016E47F107E27FDFC9007D4E0F8A3E0F97C
:100C9200A3E0FAA3E0FBD312061950169007D4E0A2
:100CA200FCA3E0FDA3E0FEA3E0C394E8FFEE9403FF
:100CB20080627FA07E867D017C009007D4E0F8A34D
:100CC200E0F9A3E0FAA3E0FBD3120619501690074D
:100CD200D4E0FCA3E0FDA3E0FEA3E0C39488FFEE12
:100CE200941380307F407E427D0F7C009007D4E0D9
:100CF200F8A3E0F9A3E0FAA3E0FBD3120619501A15
:100D02009007D4E0FCA3E0FDA3E0FEA3E0C394506F
:100D1200FFEE94C3FEED940080347F807E967D9832
:100D22007C009007D4E0F8A3E0F9A3E0FAA3E0FB8B
:100D3200D312061950239007D4E0FCA3E0FDA3E0F0
:100D4200FEA3E0C394A0FFEE9486FEED9401FDECB9
:100D52009400FC9007D412063DE47F01FEFDFC9056
:100D620007D4E0F8A3E0F9A3E0FAA3E0FBC312067C
:100D720019500A9007D412064900000001121F6B95
:100D8200900805E0FFFD9007F8E0FB3395E0FAD309
:100D9200EB9D7480F86A984003EFF022900804E01B
:100DA200FFFDC3EB9D7480F86A9850059007F8EF39
:020DB200F0222D
:10100000200102214EE47FD07E07FDFC900000E02D
:10101000F8A3E0F9A3E0FAA3E0FBC3120619401518
:10102000900000E0FCA3E0FDA3E0FEA3E024F4FFB9
:10103000EE34012119E47FE87E03FDFC900000E01E
:10104000F8A3E0F9A3E0FAA3E0FBC31206194014E9
:10105000900000E0FCA3E0FDA3E0FEA3E02464FF19
:10106000E43E2119E47FC8FEFDFC900000E0F8A3F7
:10107000E0F9A3E0FAA3E0FBC312061940149000C4
:1010800000E0FCA3E0FDA3E0FEA3E02432FFE43E89
:101090002119E47F64FEFDFC900000E0F8A3E0F974
:1010A000A3E0FAA3E0FBC31206194014900000E08D
:1010B000FCA3E0FDA3E0FEA3E0240AFFE43E805988
:1010C000E47F14FEFDFC900000E0F8A3E0F9A3E04B
:1010D000FAA3E0FBC31206194014900000E0FCA341
:1010E000E0FDA3E0FEA3E02405FFE43E802BE4FF47
:1010F000FEFDFC900000E0F8A3E0F9A3E0FAA3E015
:10110000FBC3120619401F900000E0FCA3E0FDA302
:10111000E0FEA3E02401FFE43EFEE43DFDE43CFCF0
:1011200090000012063DE47F107E27FDFC90000039
:10113000E0F8A3E0F9A3E0FAA3E0FBD3120619500C
:101140000241929000001206490000271022E47F1D
:1011500014FEFDFC900000E0F8A3E0F9A3E0FAA380
:10116000E0FBD31206195012900000E0FCA3E0FD52
:10117000A3E0FEA3E0C39401412AE47F64FEFDFCEA
:10118000900000E0F8A3E0F9A3E0FAA3E0FBD3129B
:1011900006195012900000E0FCA3E0FDA3E0FEA3BE
:1011A000E0C39405412AE47FC8FEFDFC900000E006
:1011B000F8A3E0F9A3E0FAA3E0FBD312061950125A
:1011C000900000E0FCA3E0FDA3E0FEA3E0C3940ACE
:1011D0008058E47FE87E03FDFC900000E0F8A3E087
:1011E000F9A3E0FAA3E0FBD3120619501290000015
:1011F000E0FCA3E0FDA3E0FEA3E0C39432802BE477
:101200007FD07E07FDFC900000E0F8A3E0F9A3E0AA
:10121000FAA3E0FBD31206195016900000E0FCA3DD
:10122000E0FDA3E0FEA3E0C39464FFEE9400802FF2
:10123000E47F107E27FDFC900000E0F8A3E0F9A316
:10124000E0FAA3E0FBD31206195023900000E0FC63
:10125000A3E0FDA3E0FEA3E0C394F4FFEE9401FE3F
:10126000ED9400FDEC9400FC90000012063DE47F3C
:1012700001FEFDFC900000E0F8A3E0F9A3E0FAA372
:10128000E0FBC3120619500A900000120649000044
:0312900000012238
:10204A003001229007F8E004F0900805E0FFFD90C7
:10205A0007F8E0FB3395E0FAD3EB9D7480F86A98B1
:10206A004024EFF0229007F8E014F0900804E0FF13
:10207A00FD9007F8E0FB3395E0FAC3EB9D7480F816
:07208A006A985002EFF022FA
:102239009007F2E024FE6014047018300307A2002E
:102249009201020A62A200920102204AA2009201AE
:04225900121000223D
:0817F7007F0C7EA9DEFEDFFC81
:0117FF0022C7
:082349007F187E55DEFEDFFC6B
:012351002269
:082352007F757EB8DEFEDFFCA2
:01235A002260
:0E232C0000007F057E907D47DDFEDEFCDFFABF
:01233A002280
:1023170000007F2E7E997DF530B202C322DDFEDEFE
:04232700F7DFF5D314
:01232B00228F
:1022E80012232C00007F137E3E7D2B20B202D322C6
:0722F800DDFEDEF7DFF5C398
:0122FF0022BC
:08235B007F057EA8DEFEDFFC19
:012363002257
:10067A004B4B4C4C4D4D4E4E4F4F50505151525288
:10068A005353535454555556565757585859595AFF
:10069A005A5A5B5B5C5C5D5D5E5E5F5F5F6060617A
:1006AA0061626263636464646565666667676868F5
:1006BA006869696A6A6B6B6B6C6C6D6D6E6E6E6F76
:1006CA006F707070717172727273737474747575FD
:1006DA0076767677777878787979797A7A7A7B7B89
:1006EA007C7C7C7D7D7D7E7E7E7F7F7F808080811D
:1006FA0081818282828383838484848585858586B9
:10070A00868687878787888888898989898A8A8A5D
:10071A008A8B8B8B8B8C8C8C8C8D8D8D8D8D8E8E0C
:10072A008E8E8E8F8F8F8F8F9090909090919191C7
:10073A00919191929292929292939393939393938B
:10074A00939494949494949494949595959595955A
:10075A009595959595959595969696969696969637
:10076A00969696969696969696969696969696961F
:10077A009696969696969696969696969695959512
:10078A009595959595959595959594949494949415
:10079A009494949393939393939393929292929221
:1007AA00929291919191919190909090908F8F8F38
:1007BA008F8F8E8E8E8E8E8D8D8D8D8C8C8C8C8B5C
:1007CA008B8B8B8A8A8A8A8989898988888888878B
:1007DA0087878686868685858584848483838383C2
:1007EA008282828181818080807F7F7F7E7E7E7D02
:1007FA007D7C7C7C7B7B7B7A7A7A7979787878774E
:10080A00777776767575757474737373727271719E
:10081A007170706F6F6F6E6E6D6D6C6C6C6B6B6AF6
:10082A006A69696968686767666666656564646354
:10083A0063626262616160605F5F5E5E5D5D5D5CB6
:10084A005C5B5B5A5A59595858575757565655551B
:10085A00545453535252515150504F4F4F4E4E4D84
:10086A004D4C4C4B4B4A4A494948484747474646EC
:10087A004545444443434242414140403F3F3F3E55
:10088A003E3D3D3C3C3B3B3A3A39393938383737BB
:10089A003636353534343433333232313130303020
:1008AA002F2F2E2E2D2D2D2C2C2B2B2A2A2A29297F
:1008BA0028282727272626252525242423232322DB
:1008CA002221212120201F1F1F1E1E1E1D1D1C1C30
:1008DA001C1B1B1B1A1A1A1919181818171717167E
:1008EA0016161515151414141313131312121211C4
:1008FA001111101010100F0F0F0E0E0E0E0D0D0D00
:10090A000D0C0C0C0C0B0B0B0B0A0A0A0A09090931
:10091A00090808080808070707070706060606065B
:10092A00050505050505040404040404040303037A
:10093A00030303030302020202020202020201018A
:10094A000101010101010101010101000000000092
:10095A00000000000000000000000000000000008D
:10096A00000000000000000000000000000000007D
:10097A00010101010101010101010101010102025B
:10098A000202020202020203030303030303030433
:10099A0004040404040505050505050606060606FD
:1009AA000707070707080808080809090909090ABB
:1009BA000A0A0A0B0B0B0B0C0C0C0C0D0D0D0D0E71
:1009CA000E0E0F0F0F0F101010111111111212121B
:1009DA0013131314141415151516161617171718BA
:1009EA0018181919191A1A1A1B1B1C1C1C1D1D1D53
:1009FA001E1E1E1F1F2020202121222222232324E3
:100A0A0024242525262626272728282829292A2A6C
:100A1A002B2B2B2C2C2D2D2E2E2E2F2F30303131EF
:100A2A00323232333334343535363637373738386D
:100A3A0039393A3A3B3B3C3C3C3D3D3E3E3F3F40E8
:100A4A004041414242434343444445454646474761
:080A5A00484849494A4A4B4B48
:10214A00C1064107F0004407D4000000644107F8C3
:10215A0032440000000000644107F2014207E60031
:05216A00004107F10136
:1021ED00E47FDC7E02FDFC9007D4E0F8A3E0F9A3C8
:1021FD00E0FAA3E0FBD312061950079007F0740F15
:08220D00F022E49007F0F0223A
:101D8A00E47F32FEFDFC9007D4E0F8A3E0F9A3E07B
:101D9A00FAA3E0FBC312061950169007D4E0F8A381
:101DAA00A3A3E07F807E847D1E7C0012056380539E
:101DBA009007F0E02401FFE433AB07FA3395E0F92A
:101DCA00F87F007E1C7D4E7C0E1205639007D4E0DE
:101DDA00F8A3E0F9A3E0FAA3E0FB120563EF2405F8
:101DEA00FFE43EFEE43DFDE43CFCE47B0AFAF9F83C
:101DFA00120563EF24FFFFEE34FFFEED34FFFDEC26
:0A1E0A0034FFFC9007E212063D22AF
:102000009007F8E0FF3395E0FEFDFC9007E2E0F872
:10201000A3E0F9A3E0FAA3E0FB1204D8E47B0AFAF8
:10202000F9F81204D8EF2405FFE43EFEE43DFDE498
:102030003CFCE47B0AFAF9F8120563E47B64FAF9E4
:0A204000F81205639007E802063D60
:100DB4009007F17401F0E47F707E17FDFC90000051
:100DC400E0F8A3E0F9A3E0FAA3E0FBD3120619408C
:100DD400089007F17464F0C1CEE47F887E13FDFCB3
:100DE400900000E0F8A3E0F9A3E0FAA3E0FBD3123B
:100DF400061940089007F17432F0C1CEE47FB87E42
:100E04000BFDFC900000E0F8A3E0F9A3E0FAA3E0F6
:100E1400FBD312061940089007F17428F0C1CEE400
:100E24007FC47E09FDFC900000E0F8A3E0F9A3E094
:100E3400FAA3E0FBD312061940089007F17419F0E5
:100E4400C1CEE47FE87E03FDFC900000E0F8A3E05F
:100E5400F9A3E0FAA3E0FBD312061940089007F1C6
:100E64007414F08065E47FF47E01FDFC900000E0E2
:100E7400F8A3E0F9A3E0FAA3E0FBD31206194008B3
:100E84009007F17408F08042E47FFAFEFDFC9000C4
:100E940000E0F8A3E0F9A3E0FAA3E0FBD3120619FB
:100EA40040089007F17404F08020E47F64FEFDFCA8
:100EB400900000E0F8A3E0F9A3E0FAA3E0FBD3126A
:100EC400061940069007F17402F0E47FE87E03FD02
:100ED400FC900000E0F8A3E0F9A3E0FAA3E0FB1221
:100EE40004D8C0079007F1E0FBE4FAF9F8D0071240
:080EF40005639007D402063DDE
:1022800043BA8053F57F53F5BF53F6BF53BA7FC2AD
:0E2290008EC28FC2C5C2C443B33053B4CF2236
:10152100200602E180C2C553B3DF43B420E4FFFECD
:10153100FDFC9007E8E0F8A3E0F9A3E0FAA3E0FBE3
:10154100C3120619700AC28EC28F53F5FDC2C5229D
:101551009007E2E0FCA3E0FDA3E0FEA3E0FF90071B
:10156100E8E0F8A3E0F9A3E0FAA3E0FBC31206194F
:10157100700AC28EC28F53F5FDD2C522E47F32FEBE
:10158100FDFC9007D4E0F8A3E0F9A3E0FAA3E0FBA7
:10159100C3120619405743BA8090FFF2E4F0C083AA
:1015A100C082E0FF9007F0E0FEEF4ED082D083F0E2
:1015B1009007E2A3A3E0FFA3E090FFF0CFF0A3EF39
:1015C100F053F1FD90FF10E4F0A3F09007E8A3A31E
:1015D100E0FFA3E090FF12CFF0A3EFF0A37408F0B7
:1015E10075F50253F5BF43F58053BA7F2253F5FDDC
:1015F100C2C59007E8E0FCA3E0FDA3E0FEA3E0FF85
:101601009007DE12063D9007E8E0F8A3E0F9A3E0B9
:10161100FAA3E0FB9007E2E0FCA3E0FDA3E0FEA358
:10162100E0C39BFFEE9AFEED99FDEC98FC9007EC70
:1016310012063DE4FBFA7901F89007DEE0FCA3E035
:10164100FDA3E0FEA3E0FF1205639007F5EEF0A312
:10165100EFF0E4FBFA7901F89007ECE0FCA3E0FD80
:10166100A3E0FEA3E0FF1205639007DCEEF0A3EF19
:10167100F0A3A3A3E0FEA3E0FBEEFAC3748F9BFFEC
:1016810074019AFE74019400FDE49400FC9007DE5D
:1016910012063D9007ECA3A3E0FEA3E0FBEEFAC324
:1016A100748F9BFF74019AFE74019400FDE4940011
:1016B100FC9007EC12063DE47FFF7EFFFDFC9007E6
:1016C100DEE0F8A3E0F9A3E0FAA3E0FBD3120619E8
:1016D10040319007F6E024FFF09007F5E034FFF089
:1016E1009007DEE0FCA3E0FDA3E0FEA3E0C394FFCE
:1016F100FFEE94FFFEED9400FDEC9400FC9007DEFC
:1017010012063DE47FFF7EFFFDFC9007ECE0F8A3AD
:10171100E0F9A3E0FAA3E0FBD312061940319007E8
:10172100DDE024FFF09007DCE034FFF09007ECE00F
:10173100FCA3E0FDA3E0FEA3E0C394FFFFEE94FF52
:10174100FEED9400FDEC9400FC9007EC12063D9038
:1017510007DCE0FFA3E09007F3CFF0A3EFF09007E1
:10176100ECE0FCA3E0FDA3E0FEA3E0FF7808120695
:101771002A8F8D9007ECA3A3A3E0F58BD28E2212C2
:03178100228022A1
:101800009007D4E0FCA3E0FDA3E0FEA3E0FFE41218
:101810000354A804A905AA06AB077F007E7C7D12AD
:101820007C481202B79007FB12063DE49007F9F0DE
:10183000A3F09007F9E0FEA3E0FFC394E8EE648014
:1018400094835063747A2FF58274063EF583E49393
:10185000FCE412035E9007FBE0F8A3E0F9A3E0FAD2
:10186000A3E0FB1201AEE4FBFA7980783F1200BDE1
:10187000120392AD07AC069007FAE025E0FF90074F
:10188000F9E033FE74042FF58274003EF583ECF02A
:10189000A3EDF09007F1E0FF9007FAE02FF090073A
:1018A000F9E03400F0808B2006022140C2C453B31B
:1018B000EF43B41043BA8053F57F53F5BF53F6BFDF
:1018C00090FFF2E4F0C083C082E0FF9007F0E0FEFA
:1018D000EF4ED082D083F09007E2A3A3E0FFA3E015
:1018E00090FFF0CFF0A3EFF0E49007E6F0A3F090C4
:1018F000FF20F0A3F09007E7E025E0FF9007E6E087
:1019000033FE74042FF58274003EF583E0FFA3E0FC
:1019100090FF22CFF0A3EFF09007F1E0FF9007E7F0
:10192000E02FF09007E6E03400F053F1FB90FF2445
:101930007408F043F50443F54043F58053BA7F2221
:03194000122280F0
:011943002281
:102300009007F2E0640170030215219007F2E06487
:072310000270031218002205
:0300B300021784AD
:10178400C0E0C0F0C083C082C0D075D000C000C02B
:1017940006C00753F6BFC0BA43BA809007E7E025F6
:1017A400E0FF9007E6E033FE74042FF58274003EF8
:1017B400F583E0FFA3E090FF22CFF0A3EFF09007C2
:1017C400F1E0FF7E009007E6EE8FF0120481FEC385
:1017D400E5F094E8EE940340079007E6E4F0A3F004
:1017E400D0BAD007D006D000D0D0D082D083D0F0E9
:0317F400D0E03210
:03001B00021B19AC
:101B1900C0E0C0F0C083C082C0D075D000C000C092
:101B290001C002C003C004C005C006C007C28E9030
:101B390007F374FFF5F012049745F07060B2C5120F
:101B4900235B30C5299007F5E0FFA3E09007F3CFA9
:101B5900F0A3EFF09007DEE0FCA3E0FDA3E0FEA315
:101B6900E0FF780812062A8F8D9007DE80279007FC
:101B7900DCE0FFA3E09007F3CFF0A3EFF09007ECD0
:101B8900E0FCA3E0FDA3E0FEA3E0FF780812062A2B
:101B99008F8D9007ECA3A3A3E0F58B8006758D00CC
:101BA900758B00C28FD28ED007D006D005D004D055
:101BB90003D002D001D000D0D0D082D083D0F0D0D1
:021BC900E03208
:1000B6000203FEE86480F8E933E83360110460F077
:1000C600ED33EC337009E8FCE9FDEAFEEBFF2204B0
:1000D60060DED3EB9FEA9EE99DE8C2E78CF0C2F7AB
:1000E60095F0400CE8CCF8E9CDF9EACEFAEBCFFB77
:1000F6001203C985D0F05804700320D5B3E8047004
:10010600075002B2D502040892D5EC0460F7E4CC9D
:10011600C0E0C398F8603B94186008400DD0E0FB3F
:100126000203E0E4FBFAC9FC8028E830E406E4C9EF
:10013600FBE4CAFCE830E305E4C9CACBFCE8540793
:100146006010F8C3E913F9EA13FAEB13FBEC13FC9E
:10015600D8F130F52FC3E49CFCEF9BFFEE9AFEED41
:1001660099FDD0E0FBEF4E4D4C701222DB030204EA
:1001760005EC2CFCEF33FFEE33FEED33FDED30E7FF
:10018600EB0203E0EF2BFFEE3AFEED39FDD0E0FB8C
:1001960050130BBB0003020408ED13FDEE13FEEF34
:0801A60013FFEC13FC0203E05F
:1001AE00EC4D6011E8497017ED33EC3304600DE44B
:1001BE00FCFFFEFD22E933E8330470F80203FE1261
:1001CE0003C958046009E4CC248150062850090262
:1001DE000408284003020405C0E0EB4A7044B980CD
:1001EE0006D0E0FB0203F4EF4E701CBD8008EBFF5F
:1001FE00EAFEE9FD80EBE98DF0A4FEE5F002029740
:10020E00E9CDF9EAFEEBFFEF89F0A4FCE5F0CE892B
:10021E00F0A42EFFE435F0CD89F0A42DFEE435F0E8
:10022E008067EF4E7005BD80D780C3EF8BF0A4AC16
:10023E00F0EE8BF0A42CFCE435F0F8EF8AF0A42C51
:10024E00E5F038FCE433CB8DF0A42CFCE5F03BF864
:10025E00EE8AF0A42CFCE5F038F8E433CF89F0A454
:10026E002CFCE5F038CF3400CE89F0A42FFFE5F05A
:10027E003EFEE433C98DF0A42EFEE5F039CD8AF0B2
:10028E00A42FFFE5F03EFEE43DFD33D0E0FB50072A
:10029E000BBB000F020408EC2CFCEF33FFEE33FE19
:0602AE00ED33FD0203E048
:1002B400020408EC5D046005E8590470030203FEBF
:1002C4001203C9580460F6EC4860F2EC7004FDFEB9
:1002D400FF22C860DB2481C85009C398600250061D
:1002E4000204059850CAF582E9294B4A7005AB828D
:1002F4000203F475F0007C1A7880C3EF9BEE9AED4C
:1003040099400DC3EF9BFFEE9AFEED99FDE842F094
:10031400DC23ACF0D0E0FFD0E0FED0E0FDAB8220E7
:10032400E7101BEB60BAEC2CFCEF33FFEE33FEED71
:1003340033FD0203E0E803F830E705C0F075F00090
:10034400EF2FFFEE33FEED33FD40B830E7C280AA55
:1003540075F020800E75F010800575F0087D007E24
:10036400007F003392D530D5031205F5EC334010ED
:10037400EF33FFEE33FEED33FDEC33FCD5F0ED222D
:0E038400E5F0247EA2D513CC92E7CDCEFF2269
:10039200EDD2E7CD33EC3392D524814006E4FFFE63
:1003A200FDFC22FCE4CFCECDCC24E0501174FF80C2
:1003B200EDC3CC13CCCD13CDCE13CECF13CF04705F
:0703C200F030D5DE0205F565
:1003C900E9D2E7C933E833F892D5EDD2E7CD33EC7A
:0703D90033FC5002B2D522F3
:1003E000EC30E7100FBF000C0EBE00080DBD00047E
:1003F0000BEB6014A2D5EB13FCED92E7FD2274FF2A
:10040000FCFDFEFF22E480F8A2D574FF13FC7D8082
:03041000E480EF96
:101C8000021944E493A3F8E493A34003F68001F21D
:101C900008DFF48029E493A3F85407240CC8C33365
:101CA000C4540F4420C8834004F456800146F6DF34
:101CB000E4800B0102040810204080902144E47E5F
:101CC000019360BCA3FF543F30E509541FFEE49329
:101CD000A360010ECF54C025E060A840B8E493A3F0
:101CE000FAE493A3F8E493A3C8C582C8CAC583CA1B
:101CF000F0A3C8C582C8CAC583CADFE9DEE780BED3
:01216F00006F
:10041300BB010689828A83E0225002E722BBFE02E7
:09042300E32289828A83E493221A
:10042C00BC000BBE0029EF8DF084FFADF022E4CCB4
:10043C00F875F008EF2FFFEE33FEEC33FCEE9DEC7D
:10044C00984005FCEE9DFE0FD5F0E9E4CEFD22EDC3
:10045C00F8F5F0EE8420D21CFEADF075F008EF2F0D
:10046C00FFED33FD4007985006D5F0F222C398FDFE
:05047C000FD5F0EA229B
:10048100C5F0F8A3E028F0C5F0F8E5821582700206
:060491001583E038F022A3
:10049700A3F8E0C5F025F0F0E58215827002158318
:0604A700E0C838F0E82275
:1004AD00BB010A89828A83E0F5F0A3E0225006871A
:1004BD00F009E71922BBFE07E3F5F009E3192289DC
:0B04CD00828A83E493F5F0740193220F
:1004D800E88FF0A4CC8BF0A42CFCE98EF0A42CFCC3
:1004E8008AF0EDA42CFCEA8EF0A4CDA8F08BF0A441
:1004F8002DCC3825F0FDE98FF0A42CCD35F0FCEBA0
:100508008EF0A4FEA9F0EB8FF0A4CFC5F02ECD3964
:0F051800FEE43CFCEAA42DCE35F0FDE43CFC22D1
:1005270075F008758200EF2FFFEE33FECD33CDCC8B
:1005370033CCC58233C5829BED9AEC99E58298400E
:100547000CF582EE9BFEED9AFDEC99FC0FD5F0D6EB
:10055700E4CEFBE4CDFAE4CCF9A88222B800C1B915
:100567000059BA002DEC8BF084CFCECDFCE5F0CB53
:10057700F97818EF2FFFEE33FEED33FDEC33FCEB8C
:1005870033FB10D703994004EB99FB0FD8E5E4F947
:10059700FA227818EF2FFFEE33FEED33FDEC33FC34
:1005A700C933C910D7059BE99A4007EC9BFCE99A28
:1005B700F90FD8E0E4C9FAE4CCFB2275F010EF2F6D
:1005C700FFEE33FEED33FDCC33CCC833C810D7076D
:1005D7009BEC9AE899400AED9BFDEC9AFCE899F8A8
:0E05E7000FD5F0DAE4CDFBE4CCFAE4C8F9223B
:101FBA00C2D5E830E70FB2D5E4C39BFBE49AFAE452
:101FCA0099F9E498F8EC30E717B2D5121FF0120528
:101FDA0063E4C39BFBE49AFAE499F9E498F8800372
:101FEA0012056330D50DE4C39FFFE49EFEE49DFD18
:041FFA00E49CFC2245
:0E05F500C3E49FFFE49EFEE49DFDE49CFC2217
:10060300EB9FF5F0EA9E42F0E99D42F0EC6480C86E
:0606130064809845F0220E
:10061900EB9FF5F0EA9E42F0E99D42F0E89C45F037
:0106290022AE
:10062A00E8600FECC313FCED13FDEE13FEEF13FFAE
:03063A00D8F122D2
:0C063D00ECF0A3EDF0A3EEF0A3EFF02230
:10064900A8828583F0D083D08212066012066012D8
:100659000660120660E473E493A3C583C5F0C583FD
:10066900C8C582C8F0A3C583C5F0C583C8C582C8FB
:01067900225E
:00000001FF
