:0220CA00C185CE
:101B6900759100759200759300759400C2C5C2C441
:101B790043B33053B4CFC28AD2BAD2AAD288D2B828
:101B8900D2A85389F0538E7F758AC0758C63D2A908
:101B990053890F538EBFD2ABD2AF9007D4E0FCA3C9
:101BA900E0FDA3E0FEA3E0FF9007D812063D9007F1
:101BB900F2E09007F7F0121F3D900805E0FFFD9055
:101BC90007F8E0FB3395E0FAD3EB9D7480F86A9847
:101BD9004004EFF08015900804E0FFFDC3EB9D740D
:101BE90080F86A9850059007F8EFF012191430053B
:0E1BF900FDC20512223112220E121E1880F0BB
:10224F00A2B330B401B35004D200800AA2B330B4A9
:0A225F0001B34005C2001221EA227B
:03001300022017B1
:10201700C0E0C0F0C083C082C0D075D000C000C08F
:1020270001C002C003C004C005C006C0071222E0F9
:1020370012224FD205C28BD007D006D005D004D0CC
:1020470003D002D001D000D0D0D082D083D0F0D03E
:02205700E03275
:03000300021C9349
:101C9300C0E0C0F0C083C082C0D075D000C000C017
:101CA30001C002C003C004C005C006C0071222E978
:101CB30020B247120FEA50219007F2E004F0E094BB
:101CC30002748094804002E4F09007F2E0640270B2
:101CD30002D203C206D204801F1222995010900729
:101CE300F2E0940074809480400EB206800A90075C
:101CF300F2E064017002B203D2051222E9C289D074
:101D030007D006D005D004D003D002D001D000D034
:0A1D1300D0D082D083D0F0D0E032AF
:03000B000221C609
:1021C600C0E0C083C082C0D0900806E004F0D3947B
:1021D600C8748094804004E4F0D205D0D0D082D078
:0421E60083D0E03290
:03000000021C07D8
:0C1C0700787FE4F6D8FD758120021C4EA9
:0922CE005397DF75BC800222E980
:101DA600E4F5BDF5BEEFB40A005046901DB725E038
:101DB60073A1D1A1D6A1DBA1E0A1E5A1EAA1EFA182
:101DC600F4A1F7A1CBE4F59DFF8026759D01802146
:101DD600759D02801C759D048017759D088012757F
:101DE6009D10800D759D208008759D408003759D12
:101DF60080EF4488F5BC00000000E5BC30E4FB53EE
:101E0600BCEFAFBDEF75F004A4FFAEF0ADBEEF4D75
:011E1600FFCC
:011E170022A8
:100F2F0090080174FFF0A3747FF0A374F7F01222FE
:100F3F00CE7F09121DA67F09121DA69007FB120670
:100F4F004900000000E49007FFF0A3F09007FBE0DA
:100F5F00F8A3E0F9A3E0FAA3E0FB7F09121DA6EEC8
:100F6F003395E0FDFCEB2FFFEA3EFEE93DFDE83C4B
:100F7F00FC9007FB12063D900800E004F07006900D
:100F8F0007FFE004F0C39007FFE06480948240BC49
:100F9F009007FBE0FCA3E0FDA3E0FEA3E0FF7809D0
:100FAF0012062A9007FB12063D900801E0FBA3E012
:100FBF00FAA3E0F91204ADFFAEF0EE3395E0FDFCBD
:100FCF00E47BFF7A03F9F81204D89007FBE0F8A34B
:0B0FDF00E0F9A3E0FAA3E0FB020563C9
:1021760000000E0A0A1B000000000E1100000000FD
:1021860000000000110E000000040A11000000000B
:0821960000000000110A040022
:10226900C2877590FFC285D286D2871222D7E590A0
:07227900339202C287A202AA
:01228000223B
:052093009007FBEFF0D7
:10209800E4A3F0122269500D9007FCE0C394647425
:1020A80080948040EE9007FCE004F0C285C286C2AE
:1020B800879007FBE0F5901222E0D2871222E0C257
:0120C8008790
:0120C90022F4
:101EE1007BE87A03E4F9F89007F9E0FCA3E0FDA3AD
:101EF100E0FEA3E0FF121FD3E47B0AFAF9F8121FF8
:051F0100D3EB2430FFCA
:051F06009007FEEFF062
:101F0B00E4A3F0122269500D9007FFE0C3946474B0
:101F1B0080948040EE9007FFE004F0D285C286C229
:101F2B00879007FEE0F5901222E0D2871222E0C2E2
:011F3B00871E
:011F3C002282
:1020F6009007FBEBF0A3EAF0A3E9F09007FBE0FB07
:10210600A3E0FAA3E0F9120413FF600F121F069072
:0C21160007FCE475F00112048180E02257
:101293009007F912063D7F407E427D0F7C00900748
:1012A300F9E0F8A3E0F9A3E0FAA3E0FBC312060315
:1012B30040697B407A42790F78009007F9E0FCA3FC
:1012C300E0FDA3E0FEA3E0FF121FD3EF2430FF12E3
:1012D3001F067BA07A86790178009007F9E0FCA3CA
:1012E300E0FDA3E0FEA3E0FF121FD3E47B0AFAF9BB
:1012F300F8121FD3AC00AD01AE02AF03E4FBFAF961
:10130300F8C312060350107F2E121F067BA07A86A5
:1013130079017800121EE87F4DA11D7FA07E867D96
:10132300017C009007F9E0F8A3E0F9A3E0FAA3E059
:10133300FBC3120603402E7BA07A867901780090C6
:1013430007F9E0FCA3E0FDA3E0FEA3E0FF121FD337
:10135300EF2430FF121F067B107A27121EE5121EA0
:10136300E17F6BA11DE47F107E27FDFC9007F9E070
:10137300F8A3E0F9A3E0FAA3E0FBC3120603406578
:10138300E47B107A27F9F89007F9E0FCA3E0FDA3CA
:10139300E0FEA3E0FF121FD3EF2430FF121F06125B
:1013A3001EE1E47B64FAF9F89007F9E0FCA3E0FDA1
:1013B300A3E0FEA3E0FF121FD3E47B0AFAF9F812BD
:1013C3001FD3AC00AD01AE02AF03E4FBFAF9F8C3DF
:1013D300120603500C7F2E121F06E47B64FA121EC2
:1013E300E67F6BA11DE47FE87E03FDFC9007F9E037
:1013F300F8A3E0F9A3E0FAA3E0FBC31206034062FB
:10140300E47BE87A03F9F89007F9E0FCA3E0FDA395
:10141300E0FEA3E0FF121FD3EF2430FF121F06E408
:101423007B64FAF9F89007F9E0FCA3E0FDA3E0FE82
:10143300A3E0FF121FD3E47B0AFAF9F8121FD3AC1F
:1014430000AD01AE02AF03E4FBFAF9F8C3120603E1
:10145300500C7F2E121F06E47B64FA121EE67F6B8C
:10146300A11DE47F64FEFDFC9007F9E0F8A3E0F919
:10147300A3E0FAA3E0FBC31206034042E47B64FA51
:10148300F9F89007F9E0FCA3E0FDA3E0FEA3E0FF79
:10149300121FD3EF2430FF121F06E47B0AFA121E39
:1014A300E6E47B0AFAF9F89007F9E0FCA3E0FDA370
:1014B300E0FEA3E0FF121FD3EB2430FF805CE47F48
:1014C3000AFEFDFC9007F9E0F8A3E0F9A3E0FAA314
:1014D300E0FBC31206034038E47B0AFAF9F89007ED
:1014E300F9E0FCA3E0FDA3E0FEA3E0FF121FD3EFAE
:1014F3002430FF121F06E47B0AFAF9F89007F9E09B
:10150300FCA3E0FDA3E0FEA3E0FF121FD3EB8007E3
:0E1513009007F9A3A3A3E02430FF121F0622C5
:101914001222B17F381220931222B17F3812209301
:101924001222B17F381220931222B17F38122093F1
:101934007F081220937F011220937F0612209312B6
:1019440022B17F0C1220937F40122093E49007F978
:10195400F0A3F09007F9E0FEA3E0FFC39408EE645F
:10196400809480502074762FF58274213EF583E4B0
:1019740093FF121F069007FAE004F070D69007F95F
:10198400E004F080CE1222E97F50122093E4900705
:10199400F9F0A3F09007F9E0FEA3E0FFC39408EE8A
:1019A400648094805020747E2FF58274213EF583E8
:1019B400E493FF121F069007FAE004F070D6900734
:1019C400F9E004F080CE1222E97F58122093E490CB
:1019D40007F9F0A3F09007F9E0FEA3E0FFC3940831
:1019E400EE64809480502074862FF58274213EF535
:1019F40083E493FF121F069007FAE004F070D69078
:0A1A040007F9E004F080CE0222E9A9
:10205900463A00487A202000443A002520004344AB
:1020690000200050002020005074004F4E20200016
:102079004F464620005644443D004279204372654C
:0A2089006174697665204C617500F2
:0420CC00C183C18487
:10001E007F811220937BFF7A2079591220F67F83FD
:10002E001220939007F2E024FE6050047076900741
:10003E00D4E0FCA3E0FDA3E0FEA3E0FF1212937B4D
:10004E00FF7A20795C1220F67F8A1220937BFF7A4A
:10005E002079611220F69007F8E0FF3395E0FEFD5F
:10006E00FC1212937BFF7A2079641220F67FC01265
:10007E002093E4FF121F06E4FF8026900000E0FCB0
:10008E00A3E0FDA3E0FEA3E0FF1212937BFF7A2014
:10009E00795C1220F67FC01220937F02121F067F1A
:0500AE0003121F0622F1
:101AC0007FCC1220937BFF7A2079671220F6E47F87
:101AD00032FEFDFC9007D4E0F8A3E0F9A3E0FAA3FE
:101AE000E0FBC3120619500A7F0C7E007D007C00CB
:101AF000800F9007F0E02401FFE433FE3395E0FD12
:101B0000FC1212937BFF7A20796A1220F69007F27A
:101B1000E0640270537F8A1220937BFF7A20796CF5
:101B20001220F69007D4E0FCA3E0FDA3E0FEA3E0C2
:101B3000FF1212937BFF7A20796E1220F67FC61275
:101B400020937BFF7A2079711220F69007F1E0FD57
:101B50007C007E037FE812042CE4FCFD1212937BD0
:091B6000FF7A20796A1220F622B6
:102281007FC21220937BFF3006067A207974800486
:082291007A2079791220F6226F
:10214D007F803003111220937F7E121F067F89122C
:10215D0020937F20800F1220937F20121F067F89EE
:09216D001220937F7E121F06224E
:101D1D00120F2F9007F9EEF0A3EFF07F80122093B2
:101D2D007BFF7A20797E1220F69007F9E0FEA3E082
:101D3D00FF7C037DE812042CEF2430FF121F067F79
:101D4D002E121F069007F9E0FEA3E0FF7C007D64D4
:101D5D0012042C7C007D0A12042CED2430FF121F7E
:101D6D00069007F9E0FEA3E0FF7C007D0A12042C2B
:101D7D007C007D0A12042CED2430FF121F06900703
:101D8D00F9E0FEA3E0FF7C007D0A12042CED243067
:091D9D00FF121F067F56021F060B
:0E22C0007FC01220937BFF7A2079830220F6E4
:10220E00300407C2047F011220939007F2E070069B
:10221E001222C0021D1D12001E121AC012214D12D2
:03222E00228122E8
:101F3D00E47FC8FEFDFC9007D4E0F8A3E0F9A3E030
:101F4D00FAA3E0FB1204D8E41203547B807A96794D
:101F5D0018784B1202B7E4FBFAF9783F1200BD1264
:101F6D000392900804EFF0C39401748094805003A1
:0F1F7D007401F0900804E0FFC374649FA3F02286
:100A620020010261FA7F407E427D0F7C009007D414
:100A7200E0F8A3E0F9A3E0FAA3E0FBC312061940F1
:100A8200199007D4E0FCA3E0FDA3E0FEA3E024A0BC
:100A9200FFEE3486FEED340161C67FA07E867D01C5
:100AA2007C009007D4E0F8A3E0F9A3E0FAA3E0FB0E
:100AB200C312061940189007D4E0FCA3E0FDA3E09E
:100AC200FEA3E02450FFEE34C3FEE43D61C6E47FA2
:100AD200107E27FDFC9007D4E0F8A3E0F9A3E0FA2A
:100AE200A3E0FBC312061940189007D4E0FCA3E070
:100AF200FDA3E0FEA3E02488FFEE3413FEE43D6193
:100B0200C6E47FE87E03FDFC9007D4E0F8A3E0F999
:100B1200A3E0FAA3E0FBC312061940189007D4E041
:100B2200FCA3E0FDA3E0FEA3E024E8FFEE3403FE15
:100B3200E43D61C6E47F64FEFDFC9007D4E0F8A3C7
:100B4200E0F9A3E0FAA3E0FBC312061940179007ED
:100B5200D4E0FCA3E0FDA3E0FEA3E02432FFE43EE8
:100B6200FEE43D805FE47F0AFEFDFC9007D4E0F8DE
:100B7200A3E0F9A3E0FAA3E0FBC312061940179021
:100B820007D4E0FCA3E0FDA3E0FEA3E02402FFE41F
:100B92003EFEE43D802EE4FFFEFDFC9007D4E0F82B
:100BA200A3E0F9A3E0FAA3E0FBC3120619401F90E9
:100BB20007D4E0FCA3E0FDA3E0FEA3E02401FFE4F0
:100BC2003EFEE43DFDE43CFC9007D412063D7F80EE
:100BD2007E847D1E7C009007D4E0F8A3E0F9A3E0B8
:100BE200FAA3E0FBD31206195002A17F9007D41298
:100BF2000649001E8480A17FE47F0AFEFDFC900767
:100C0200D4E0F8A3E0F9A3E0FAA3E0FBD3120619BB
:100C120050129007D4E0FCA3E0FDA3E0FEA3E0C3E2
:100C220094018057E47F64FEFDFC9007D4E0F8A3B2
:100C3200E0F9A3E0FAA3E0FBD312061950129007E1
:100C4200D4E0FCA3E0FDA3E0FEA3E0C39402802B6A
:100C5200E47FE87E03FDFC9007D4E0F8A3E0F9A36B
:100C6200E0FAA3E0FBD312061950169007D4E0FC79
:100C7200A3E0FDA3E0FEA3E0C39432FFEE9400A143
:100C820016E47F107E27FDFC9007D4E0F8A3E0F97C
:100C9200A3E0FAA3E0FBD312061950169007D4E0A2
:100CA200FCA3E0FDA3E0FEA3E0C394E8FFEE9403FF
:100CB20080627FA07E867D017C009007D4E0F8A34D
:100CC200E0F9A3E0FAA3E0FBD3120619501690074D
:100CD200D4E0FCA3E0FDA3E0FEA3E0C39488FFEE12
:100CE200941380307F407E427D0F7C009007D4E0D9
:100CF200F8A3E0F9A3E0FAA3E0FBD3120619501A15
:100D02009007D4E0FCA3E0FDA3E0FEA3E0C394506F
:100D1200FFEE94C3FEED940080347F807E967D9832
:100D22007C009007D4E0F8A3E0F9A3E0FAA3E0FB8B
:100D3200D312061950239007D4E0FCA3E0FDA3E0F0
:100D4200FEA3E0C394A0FFEE9486FEED9401FDECB9
:100D52009400FC9007D412063DE47F01FEFDFC9056
:100D620007D4E0F8A3E0F9A3E0FAA3E0FBC312067C
:100D720019500A9007D412064900000001121F3DC3
:100D8200900805E0FFFD9007F8E0FB3395E0FAD309
:100D9200EB9D7480F86A984003EFF022900804E01B
:100DA200FFFDC3EB9D7480F86A9850059007F8EF39
:020DB200F0222D
:10100000200102214EE47FD07E07FDFC900000E02D
:10101000F8A3E0F9A3E0FAA3E0FBC3120619401518
:10102000900000E0FCA3E0FDA3E0FEA3E024F4FFB9
:10103000EE34012119E47FE87E03FDFC900000E01E
:10104000F8A3E0F9A3E0FAA3E0FBC31206194014E9
:10105000900000E0FCA3E0FDA3E0FEA3E02464FF19
:10106000E43E2119E47FC8FEFDFC900000E0F8A3F7
:10107000E0F9A3E0FAA3E0FBC312061940149000C4
:1010800000E0FCA3E0FDA3E0FEA3E02432FFE43E89
:101090002119E47F64FEFDFC900000E0F8A3E0F974
:1010A000A3E0FAA3E0FBC31206194014900000E08D
:1010B000FCA3E0FDA3E0FEA3E0240AFFE43E805988
:1010C000E47F14FEFDFC900000E0F8A3E0F9A3E04B
:1010D000FAA3E0FBC31206194014900000E0FCA341
:1010E000E0FDA3E0FEA3E02405FFE43E802BE4FF47
:1010F000FEFDFC900000E0F8A3E0F9A3E0FAA3E015
:10110000FBC3120619401F900000E0FCA3E0FDA302
:10111000E0FEA3E02401FFE43EFEE43DFDE43CFCF0
:1011200090000012063DE47F107E27FDFC90000039
:10113000E0F8A3E0F9A3E0FAA3E0FBD3120619500C
:101140000241929000001206490000271022E47F1D
:1011500014FEFDFC900000E0F8A3E0F9A3E0FAA380
:10116000E0FBD31206195012900000E0FCA3E0FD52
:10117000A3E0FEA3E0C39401412AE47F64FEFDFCEA
:10118000900000E0F8A3E0F9A3E0FAA3E0FBD3129B
:1011900006195012900000E0FCA3E0FDA3E0FEA3BE
:1011A000E0C39405412AE47FC8FEFDFC900000E006
:1011B000F8A3E0F9A3E0FAA3E0FBD312061950125A
:1011C000900000E0FCA3E0FDA3E0FEA3E0C3940ACE
:1011D0008058E47FE87E03FDFC900000E0F8A3E087
:1011E000F9A3E0FAA3E0FBD3120619501290000015
:1011F000E0FCA3E0FDA3E0FEA3E0C39432802BE477
:101200007FD07E07FDFC900000E0F8A3E0F9A3E0AA
:10121000FAA3E0FBD31206195016900000E0FCA3DD
:10122000E0FDA3E0FEA3E0C39464FFEE9400802FF2
:10123000E47F107E27FDFC900000E0F8A3E0F9A316
:10124000E0FAA3E0FBD31206195023900000E0FC63
:10125000A3E0FDA3E0FEA3E0C394F4FFEE9401FE3F
:10126000ED9400FDEC9400FC90000012063DE47F3C
:1012700001FEFDFC900000E0F8A3E0F9A3E0FAA372
:10128000E0FBC3120619500A900000120649000044
:0312900000012238
:101F8C003001229007F8E004F0900805E0FFFD9086
:101F9C0007F8E0FB3395E0FAD3EB9D7480F86A9870
:101FAC004024EFF0229007F8E014F0900804E0FFD2
:101FBC00FD9007F8E0FB3395E0FAC3EB9D7480F8D5
:071FCC006A985002EFF022B9
:1021EA009007F2E024FE6014047018300307A2007E
:1021FA009201020A62A2009201021F8CA2009201BD
:04220A00121000228C
:0822D7007F0C7EA9DEFEDFFC96
:0122DF0022DC
:0822E0007F187E55DEFEDFFCD5
:0122E80022D3
:0822E9007F757EB8DEFEDFFC0C
:0122F10022CA
:0E22B10000007F057E907D47DDFEDEFCDFFA3B
:0122BF0022FC
:100FEA0000007F2E7E997DF530B202C322DDFEDE3F
:040FFA00F7DFF5D355
:010FFE0022D0
:102299001222B100007F137E3E7D2B20B202D32291
:0722A900DDFEDEF7DFF5C3E7
:0122B000220B
:0822F2007F057EA8DEFEDFFC83
:0122FA0022C1
:10067A004B4B4C4C4D4D4E4E4F4F50505151525288
:10068A005353535454555556565757585859595AFF
:10069A005A5A5B5B5C5C5D5D5E5E5F5F5F6060617A
:1006AA0061626263636464646565666667676768F6
:1006BA006869696A6A6B6B6B6C6C6D6D6D6E6E6F77
:1006CA006F707070717172727273737474747575FD
:1006DA0076767677777778787979797A7A7A7B7B8A
:1006EA007C7C7C7D7D7D7E7E7E7F7F7F808080811D
:1006FA0081818282828383838484848485858586BA
:10070A00868687878787888888888989898A8A8A5E
:10071A008A8B8B8B8B8C8C8C8C8C8D8D8D8D8E8E0D
:10072A008E8E8E8F8F8F8F8F9090909090919191C7
:10073A00919191929292929292929393939393938C
:10074A00939494949494949494949495959595955B
:10075A009595959595959595969696969696969637
:10076A00969696969696969696969696969696961F
:10077A009696969696969696969696969695959512
:10078A009595959595959595959594949494949415
:10079A009494949493939393939393929292929220
:1007AA00929291919191919190909090908F8F8F38
:1007BA008F8F8E8E8E8E8E8D8D8D8D8C8C8C8C8C5B
:1007CA008B8B8B8B8A8A8A8A898989888888888789
:1007DA0087878786868685858584848484838383C0
:1007EA008282828181818080807F7F7F7E7E7E7D02
:1007FA007D7D7C7C7C7B7B7A7A7A7979797878774B
:10080A00777776767675757474747373727272719B
:10081A00717070706F6F6E6E6D6D6D6C6C6B6B6BF3
:10082A006A6A696968686767676666656564646451
:10083A0063636262616160605F5F5F5E5E5D5D5CB3
:10084A005C5B5B5A5A5A5959585857575656555518
:10085A0054545353535252515150504F4F4E4E4D80
:10086A004D4C4C4B4B4B4A4A4949484847474646E8
:10087A00454544444343434242414140403F3F3E51
:10088A003E3D3D3C3C3C3B3B3A3A393938383737B8
:10089A00373636353534343333323232313130301B
:1008AA002F2F2F2E2E2D2D2C2C2B2B2B2A2A29297C
:1008BA0029282827272626262525242424232322D7
:1008CA00222221212020201F1F1F1E1E1D1D1D1C2C
:1008DA001C1C1B1B1A1A1A1919191818181717177A
:1008EA0016161615151514141413131312121212C0
:1008FA001111111010100F0F0F0F0E0E0E0E0D0DFD
:10090A000D0C0C0C0C0B0B0B0B0A0A0A0A0A090930
:10091A000909080808080807070707070606060658
:10092A000605050505050504040404040404030377
:10093A000303030303020202020202020202020189
:10094A000101010101010101010101010000000091
:10095A00000000000000000000000000000000008D
:10096A00000000000000000000000000000000007D
:10097A00000101010101010101010101010102025C
:10098A000202020202020202030303030303030434
:10099A0004040404040405050505050506060606FF
:1009AA000607070707070808080808090909090ABE
:1009BA000A0A0A0A0B0B0B0B0C0C0C0C0D0D0D0E74
:1009CA000E0E0E0F0F0F0F1010101111111212121E
:1009DA0012131313141414151515161616171717C0
:1009EA001818181919191A1A1A1B1B1C1C1C1D1D58
:1009FA001D1E1E1F1F1F20202021212222222323E9
:100A0A002424242525262626272728282929292A71
:100A1A002A2B2B2B2C2C2D2D2E2E2F2F2F303031F5
:100A2A003132323233333434353536363737373874
:100A3A003839393A3A3B3B3C3C3C3D3D3E3E3F3FF0
:100A4A004040414142424343434444454546464768
:080A5A0047484849494A4A4B4C
:1020D000C1064107F0004407D4000000644107F83E
:1020E00032440000000000644107F2014207E600AC
:0520F000004107F101B1
:10219E00E47FDC7E02FDFC9007D4E0F8A3E0F9A317
:1021AE00E0FAA3E0FBD312061950079007F0740F64
:0821BE00F022E49007F0F0228A
:101E8000E47F32FEFDFC9007D4E0F8A3E0F9A3E084
:101E9000FAA3E0FBC312061950139007D4E0F8A38D
:101EA000A3A3E07F807E847D1E7C00802A9007F0C3
:101EB000E02401FFE433AB07FA3395E0F9F87F0043
:101EC0007E367D6E7C011205639007D4E0F8A3E0B6
:101ED000F9A3E0FAA3E0FB1205639007E212063DC6
:011EE00022DF
:102122009007F8E0FF3395E0FEFDFC9007E2E0F84F
:10213200A3E0F9A3E0FAA3E0FB1204D8E47B64FA7B
:0B214200F9F81205639007E802063D63
:101800009007F17401F0E47F707E17FDFC900000FA
:10181000E0F8A3E0F9A3E0FAA3E0FBD31206194035
:10182000079007F17464F022E47F887E13FDFC903A
:101830000000E0F8A3E0F9A3E0FAA3E0FBD312066E
:101840001940079007F17432F022E47FB87E0BFD57
:10185000FC900000E0F8A3E0F9A3E0FAA3E0FBD3DA
:1018600012061940079007F17428F022E47FC47E25
:1018700009FDFC900000E0F8A3E0F9A3E0FAA3E082
:10188000FBD312061940079007F17419F022E47F88
:10189000E87E03FDFC900000E0F8A3E0F9A3E0FA85
:1018A000A3E0FBD312061940079007F17414F0224D
:1018B000E47FF47E01FDFC900000E0F8A3E0F9A3D2
:1018C000E0FAA3E0FBD312061940079007F1740871
:1018D000F022E47FFAFEFDFC900000E0F8A3E0F9BE
:1018E000A3E0FAA3E0FBD312061940079007F174B6
:1018F00004F022E47F64FEFDFC900000E0F8A3E029
:10190000F9A3E0FAA3E0FBD312061940069007F111
:041910007402F0224B
:1022310043BA8053F57F53F5BF53F6BF53BA7FC2FC
:0E2241008EC28FC2C5C2C443B33053B4CF2285
:1015210012219E121E80122122200602E189C2C5CB
:1015310053B3DF43B420E4FFFEFDFC9007E8E0F87D
:10154100A3E0F9A3E0FAA3E0FBC3120619700AC2F3
:101551008EC28F53F5FDC2C5229007E2E0FCA3E0E5
:10156100FDA3E0FEA3E0FF9007E8E0F8A3E0F9A304
:10157100E0FAA3E0FBC3120619700AC28EC28F53B0
:10158100F5FDD2C522E47F32FEFDFC9007D4E0F8E0
:10159100A3E0F9A3E0FAA3E0FBC312061940574305
:1015A100BA8090FFF2E4F0C083C082E0FF9007F0C0
:1015B100E0FEEF4ED082D083F09007E2A3A3E0FFDC
:1015C100A3E090FFF0CFF0A3EFF053F1EF90FF1005
:1015D100E4F0A3F09007E8A3A3E0FFA3E090FF12DB
:1015E100CFF0A3EFF0A37408F075F50253F5BF43F4
:1015F100F58053BA7F2253F5FDC2C59007E8E0FCA0
:10160100A3E0FDA3E0FEA3E0FF9007DE12063D90FC
:1016110007E8E0F8A3E0F9A3E0FAA3E0FB9007E212
:10162100E0FCA3E0FDA3E0FEA3E0C39BFFEE9AFE76
:10163100ED99FDEC98FC9007EC12063DE4FBFA797C
:1016410001F89007DEE0FCA3E0FDA3E0FEA3E0FFCC
:101651001205639007F5EEF0A3EFF0E4FBFA7901D0
:10166100F89007ECE0FCA3E0FDA3E0FEA3E0FF128D
:1016710005639007DCEEF0A3EFF0A3A3A3E0FEA3C4
:10168100E0FBEEFAC3748F9BFF74019AFE74019420
:1016910000FDE49400FC9007DE12063D9007ECA3E8
:1016A100A3E0FEA3E0FBEEFAC3748F9BFF74019AE3
:1016B100FE74019400FDE49400FC9007EC12063DD9
:1016C100E47FFF7EFFFDFC9007DEE0F8A3E0F9A3D5
:1016D100E0FAA3E0FBD312061940319007F6E024AB
:1016E100FFF09007F5E034FFF09007DEE0FCA3E0A7
:1016F100FDA3E0FEA3E0C394FFFFEE94FFFEED9493
:1017010000FDEC9400FC9007DE12063DE47FFF7EB5
:10171100FFFDFC9007ECE0F8A3E0F9A3E0FAA3E0F9
:10172100FBD312061940319007DDE024FFF090074A
:10173100DCE034FFF09007ECE0FCA3E0FDA3E0FE69
:10174100A3E0C394FFFFEE94FFFEED9400FDEC9443
:1017510000FC9007EC12063D9007DCE0FFA3E0904F
:1017610007F3CFF0A3EFF09007ECE0FCA3E0FDA3BB
:10177100E0FEA3E0FF780812062A8F8D9007ECA304
:0C178100A3A3E0F58BD28E2212223122AD
:100DB400121800E47FE87E03FDFC900000E0F8A335
:100DC400E0F9A3E0FAA3E0FB1204D8C0079007F10E
:100DD400E0FBE4FAF9F8D0071205639007D4120691
:100DE4003D9007D4E0FCA3E0FDA3E0FEA3E0FFE414
:100DF400120354A804A905AA06AB077F007E7C7DD4
:100E0400127C481202B79007FB12063DE49007F9E2
:100E1400F0A3F09007F9E0FEA3E0FFC394E8EE64CA
:100E24008094835063747A2FF58274063EF583E4CC
:100E340093FCE412035E9007FBE0F8A3E0F9A3E05F
:100E4400FAA3E0FB1201AEE4FBFA7980783F1200CA
:100E5400BD120392AD07AC069007FAE025E0FF90BF
:100E640007F9E033FE74042FF58274003EF583EC39
:100E7400F0A3EDF09007F1E0FF9007FAE02FF09077
:100E840007F9E03400F0808B12219E121E802006A8
:100E940002E12BC2C453B3EF43B41043BA8053F5F9
:100EA4007F53F5BF53F6BF90FFF2E4F0C083C082D6
:100EB400E0FF9007F0E0FEEF4ED082D083F0900781
:100EC400E2A3A3E0FFA3E090FFF0CFF0A3EFF0E4F0
:100ED4009007E6F0A3F090FF20F0A3F09007E7E07E
:100EE40025E0FF9007E6E033FE74042FF5827400DA
:100EF4003EF583E0FFA3E090FF22CFF0A3EFF09054
:100F040007F1E0FF9007E7E02FF09007E6E03400F8
:100F1400F053F1FB90FF247408F043F50443F540CB
:0A0F240043F58053BA7F22122231F8
:010F2E0022A0
:101E18009007F2E0FF9007F7E06F604AEFF07E006E
:101E28007008C2AAC28DD28C803CEF64014E701C2F
:101E38009007D8E0FCA3E0FDA3E0FEA3E0FF900735
:101E4800D412063DD2AAC28CC28D801A9007F2E045
:101E5800640270129007D4E0FCA3E0FDA3E0FEA3A7
:101E6800E0FFA312063D9007F2E024FE600604702E
:081E780006021521120DB4222F
:0300B30002178DA4
:10178D00C0E0C0F0C083C082C0D075D000C000C022
:10179D0006C00753F6BFC0BA43BA809007E7E025ED
:1017AD00E0FF9007E6E033FE74042FF58274003EEF
:1017BD00F583E0FFA3E090FF22CFF0A3EFF09007B9
:1017CD00F1E0FF7E009007E6EE8FF0120481FEC37C
:1017DD00E5F094E8EE940340079007E6E4F0A3F0FB
:1017ED00D0BAD007D006D000D0D0D082D083D0F0E0
:0317FD00D0E03207
:03001B00021A0EB8
:101A0E00C0E0C0F0C083C082C0D075D000C000C09E
:101A1E0001C002C003C004C005C006C007C28E903C
:101A2E0007F374FFF5F012049745F07060B2C5121B
:101A3E0022F230C5299007F5E0FFA3E09007F3CF1F
:101A4E00F0A3EFF09007DEE0FCA3E0FDA3E0FEA321
:101A5E00E0FF780812062A8F8D9007DE8027900708
:101A6E00DCE0FFA3E09007F3CFF0A3EFF09007ECDC
:101A7E00E0FCA3E0FDA3E0FEA3E0FF780812062A37
:101A8E008F8D9007ECA3A3A3E0F58B8006758D00D8
:101A9E00758B00C28FD28ED007D006D005D004D061
:101AAE0003D002D001D000D0D0D082D083D0F0D0DD
:021ABE00E03214
:1000B6000203FEE86480F8E933E83360110460F077
:1000C600ED33EC337009E8FCE9FDEAFEEBFF2204B0
:1000D60060DED3EB9FEA9EE99DE8C2E78CF0C2F7AB
:1000E60095F0400CE8CCF8E9CDF9EACEFAEBCFFB77
:1000F6001203C985D0F05804700320D5B3E8047004
:10010600075002B2D502040892D5EC0460F7E4CC9D
:10011600C0E0C398F8603B94186008400DD0E0FB3F
:100126000203E0E4FBFAC9FC8028E830E406E4C9EF
:10013600FBE4CAFCE830E305E4C9CACBFCE8540793
:100146006010F8C3E913F9EA13FAEB13FBEC13FC9E
:10015600D8F130F52FC3E49CFCEF9BFFEE9AFEED41
:1001660099FDD0E0FBEF4E4D4C701222DB030204EA
:1001760005EC2CFCEF33FFEE33FEED33FDED30E7FF
:10018600EB0203E0EF2BFFEE3AFEED39FDD0E0FB8C
:1001960050130BBB0003020408ED13FDEE13FEEF34
:0801A60013FFEC13FC0203E05F
:1001AE00EC4D6011E8497017ED33EC3304600DE44B
:1001BE00FCFFFEFD22E933E8330470F80203FE1261
:1001CE0003C958046009E4CC248150062850090262
:1001DE000408284003020405C0E0EB4A7044B980CD
:1001EE0006D0E0FB0203F4EF4E701CBD8008EBFF5F
:1001FE00EAFEE9FD80EBE98DF0A4FEE5F002029740
:10020E00E9CDF9EAFEEBFFEF89F0A4FCE5F0CE892B
:10021E00F0A42EFFE435F0CD89F0A42DFEE435F0E8
:10022E008067EF4E7005BD80D780C3EF8BF0A4AC16
:10023E00F0EE8BF0A42CFCE435F0F8EF8AF0A42C51
:10024E00E5F038FCE433CB8DF0A42CFCE5F03BF864
:10025E00EE8AF0A42CFCE5F038F8E433CF89F0A454
:10026E002CFCE5F038CF3400CE89F0A42FFFE5F05A
:10027E003EFEE433C98DF0A42EFEE5F039CD8AF0B2
:10028E00A42FFFE5F03EFEE43DFD33D0E0FB50072A
:10029E000BBB000F020408EC2CFCEF33FFEE33FE19
:0602AE00ED33FD0203E048
:1002B400020408EC5D046005E8590470030203FEBF
:1002C4001203C9580460F6EC4860F2EC7004FDFEB9
:1002D400FF22C860DB2481C85009C398600250061D
:1002E4000204059850CAF582E9294B4A7005AB828D
:1002F4000203F475F0007C1A7880C3EF9BEE9AED4C
:1003040099400DC3EF9BFFEE9AFEED99FDE842F094
:10031400DC23ACF0D0E0FFD0E0FED0E0FDAB8220E7
:10032400E7101BEB60BAEC2CFCEF33FFEE33FEED71
:1003340033FD0203E0E803F830E705C0F075F00090
:10034400EF2FFFEE33FEED33FD40B830E7C280AA55
:1003540075F020800E75F010800575F0087D007E24
:10036400007F003392D530D5031205F5EC334010ED
:10037400EF33FFEE33FEED33FDEC33FCD5F0ED222D
:0E038400E5F0247EA2D513CC92E7CDCEFF2269
:10039200EDD2E7CD33EC3392D524814006E4FFFE63
:1003A200FDFC22FCE4CFCECDCC24E0501174FF80C2
:1003B200EDC3CC13CCCD13CDCE13CECF13CF04705F
:0703C200F030D5DE0205F565
:1003C900E9D2E7C933E833F892D5EDD2E7CD33EC7A
:0703D90033FC5002B2D522F3
:1003E000EC30E7100FBF000C0EBE00080DBD00047E
:1003F0000BEB6014A2D5EB13FCED92E7FD2274FF2A
:10040000FCFDFEFF22E480F8A2D574FF13FC7D8082
:03041000E480EF96
:101C1300021B69E493A3F8E493A34003F68001F263
:101C230008DFF48029E493A3F85407240CC8C333D2
:101C3300C4540F4420C8834004F456800146F6DFA1
:101C4300E4800B01020408102040809020CAE47E47
:101C5300019360BCA3FF543F30E509541FFEE49396
:101C6300A360010ECF54C025E060A840B8E493A35D
:101C7300FAE493A3F8E493A3C8C582C8CAC583CA88
:101C8300F0A3C8C582C8CAC583CADFE9DEE780BE40
:0120F50000EA
:10041300BB010689828A83E0225002E722BBFE02E7
:09042300E32289828A83E493221A
:10042C00BC000BBE0029EF8DF084FFADF022E4CCB4
:10043C00F875F008EF2FFFEE33FEEC33FCEE9DEC7D
:10044C00984005FCEE9DFE0FD5F0E9E4CEFD22EDC3
:10045C00F8F5F0EE8420D21CFEADF075F008EF2F0D
:10046C00FFED33FD4007985006D5F0F222C398FDFE
:05047C000FD5F0EA229B
:10048100C5F0F8A3E028F0C5F0F8E5821582700206
:060491001583E038F022A3
:10049700A3F8E0C5F025F0F0E58215827002158318
:0604A700E0C838F0E82275
:1004AD00BB010A89828A83E0F5F0A3E0225006871A
:1004BD00F009E71922BBFE07E3F5F009E3192289DC
:0B04CD00828A83E493F5F0740193220F
:1004D800E88FF0A4CC8BF0A42CFCE98EF0A42CFCC3
:1004E8008AF0EDA42CFCEA8EF0A4CDA8F08BF0A441
:1004F8002DCC3825F0FDE98FF0A42CCD35F0FCEBA0
:100508008EF0A4FEA9F0EB8FF0A4CFC5F02ECD3964
:0F051800FEE43CFCEAA42DCE35F0FDE43CFC22D1
:1005270075F008758200EF2FFFEE33FECD33CDCC8B
:1005370033CCC58233C5829BED9AEC99E58298400E
:100547000CF582EE9BFEED9AFDEC99FC0FD5F0D6EB
:10055700E4CEFBE4CDFAE4CCF9A88222B800C1B915
:100567000059BA002DEC8BF084CFCECDFCE5F0CB53
:10057700F97818EF2FFFEE33FEED33FDEC33FCEB8C
:1005870033FB10D703994004EB99FB0FD8E5E4F947
:10059700FA227818EF2FFFEE33FEED33FDEC33FC34
:1005A700C933C910D7059BE99A4007EC9BFCE99A28
:1005B700F90FD8E0E4C9FAE4CCFB2275F010EF2F6D
:1005C700FFEE33FEED33FDCC33CCC833C810D7076D
:1005D7009BEC9AE899400AED9BFDEC9AFCE899F8A8
:0E05E7000FD5F0DAE4CDFBE4CCFAE4C8F9223B
:101FD300C2D5E830E70FB2D5E4C39BFBE49AFAE439
:101FE30099F9E498F8EC30E717B2D51220091205F5
:101FF30063E4C39BFBE49AFAE499F9E498F8800359
:1020030012056330D50DE4C39FFFE49EFEE49DFDFE
:04201300E49CFC222B
:0E05F500C3E49FFFE49EFEE49DFDE49CFC2217
:10060300EB9FF5F0EA9E42F0E99D42F0EC6480C86E
:0606130064809845F0220E
:10061900EB9FF5F0EA9E42F0E99D42F0E89C45F037
:0106290022AE
:10062A00E8600FECC313FCED13FDEE13FEEF13FFAE
:03063A00D8F122D2
:0C063D00ECF0A3EDF0A3EEF0A3EFF02230
:10064900A8828583F0D083D08212066012066012D8
:100659000660120660E473E493A3C583C5F0C583FD
:10066900C8C582C8F0A3C583C5F0C583C8C582C8FB
:01067900225E
:00000001FF
